:100000000C942A000C9447000C9447000C94470071
:100010000C9447000C9447000C9447000C94470044
:100020000C9447000C9447000C947B090C94DE0957
:100030000C9447000C9447000C9447000C94470024
:100040000C9469100C9447000C9447000C944700E2
:100050000C94470011241FBECFE5D8E0DEBFCDBF12
:1000600011E0A0E6B0E0EEEFF4E302C005900D92DF
:10007000AE3FB107D9F712E0AEEFB1E001C01D927B
:10008000A431B107E1F70E94B3180C947D1A0C94C7
:100090000000EF92FF920F931F937B018C0120E0F1
:1000A00030E040E05FE40E94F50388238CF0C80153
:1000B000B70120E030E040E05FE40E94C1010E940F
:1000C000B3049B01AC01205030404040504806C072
:1000D000C801B7010E94B3049B01AC01B901CA0178
:1000E0001F910F91FF90EF900895A0E0B0E0EBE733
:1000F000F0E00C94461ADC012B01FA019C9192303D
:1001000008F439C1EB018881823008F433C194309E
:1001100069F4843009F02FC111969C91119789815F
:10012000981709F428C1A5E7B0E025C1843009F487
:1001300021C18230A9F4923009F01DC19A01AD01AC
:1001400088E0EA010990AE01E90109929E0181501F
:10015000C1F7E201898111969C918923818308C1AD
:10016000923009F407C112962D903C901397EB0141
:100170008A819B811496AD90BD90CD90DC901797AD
:10018000EC80FD800E811F819101281B390BB90184
:1001900037FF04C066277727621B730B6032710537
:1001A0000CF061C0121613066CF537014801062EDB
:1001B00004C096948794779467940A94D2F721E0C8
:1001C00030E040E050E004C0220F331F441F551FB1
:1001D0006A95D2F721503040404050402E213F21B7
:1001E00040235123211531054105510521F021E01E
:1001F00030E040E050E079018A01E628F72808293C
:1002000019293CC0232BD1F1260E371E350146019A
:10021000062E04C096948794779467940A94D2F734
:1002200021E030E040E050E004C0220F331F441FC3
:10023000551F6A95D2F721503040404050402A2146
:100240003B214C215D21211531054105510521F04E
:1002500021E030E040E050E059016A01A628B728CB
:10026000C828D9280BC0821593052CF01C01AA249C
:10027000BB24650103C0EE24FF24870111969C91E5
:10028000D20111968C91981709F445C0992339F041
:10029000A80197012A193B094C095D0906C0A6016E
:1002A00095012E193F09400B510B57FD08C01182D3
:1002B0003382228224833583468357831DC081E0A5
:1002C00081833382228288279927DC01821B930B4A
:1002D000A40BB50B84839583A683B7830DC0220F2F
:1002E000331F441F551F24833583468357838281E0
:1002F000938101979383828324813581468157813D
:10030000DA01C9010197A109B1098F5F9F4FAF4F72
:10031000BF4328F30BC0918333822282EA0CFB1C7B
:100320000C1D1D1DE482F5820683178383E0808304
:10033000248135814681578157FF1AC0C901AA27F8
:1003400097FDA095BA2F81709070A070B0705695EF
:10035000479537952795822B932BA42BB52B848318
:100360009583A683B7838281938101969383828349
:10037000DF0101C0D201CD01CDB7DEB7E2E10C94BF
:10038000621AA0E2B0E0E7ECF1E00C94521A698343
:100390007A838B839C832D833E834F835887E9E048
:1003A000EE2EF12CEC0EFD1ECE010196B7010E943F
:1003B000A4068E010F5E1F4FCE010596B8010E9464
:1003C000A4068A8991E089278A8BC701B801AE010A
:1003D000475E5F4F0E9475000E94CF05A096E6E041
:1003E0000C946E1AA0E2B0E0E8EFF1E00C94521A1F
:1003F00069837A838B839C832D833E834F835887C5
:10040000F9E0EF2EF12CEC0EFD1ECE010196B701A6
:100410000E94A4068E010F5E1F4FCE010596B80103
:100420000E94A406C701B801AE01475E5F4F0E945B
:1004300075000E94CF05A096E6E00C946E1AA0E22B
:10044000B0E0E5E2F2E00C94461A69837A838B838C
:100450009C832D833E834F835887CE010196BE0136
:10046000675F7F4F0E94A406CE010596BE016F5EB6
:100470007F4F0E94A4069985923088F08989823046
:10048000C8F0943019F4823051F404C0843029F457
:10049000923081F485E790E0C6C0923049F420E0C4
:1004A0009A858A89981321E02A87CE010996BBC0D4
:1004B000823049F420E09A858A89981321E02A8BBA
:1004C000CE014196B0C02D843E844F8458886D88FB
:1004D0007E888F88988CEE24FF248701AA24BB2471
:1004E000650140E050E060E070E0E0E0F0E0C10174
:1004F00081709070892BE9F0E60CF71C081D191D1E
:100500009A01AB012A0D3B1D4C1D5D1D80E090E062
:10051000A0E0B0E0E614F7040805190520F481E036
:1005200090E0A0E0B0E0BA01A901480F591F6A1F8E
:100530007B1FAA0CBB1CCC1CDD1C97FE08C081E0F5
:1005400090E0A0E0B0E0A82AB92ACA2ADB2A3196B6
:10055000E032F10549F0660C771C881C991C569412
:10056000479437942794C3CFFA85EA892B893C892D
:100570008B859C85280F391F2E5F3F4F17C0CA01FE
:1005800081709070892B61F016950795F794E79428
:1005900080E090E0A0E0B0E8E82AF92A0A2B1B2BC3
:1005A00076956795579547952F5F3F4F77FDE7CF36
:1005B0000CC0440F551F661F771F17FD4160EE0CDE
:1005C000FF1C001F111F21503040403090E05907A0
:1005D00090E0690790E4790760F32B8F3C8FDB0193
:1005E000CA018F779070A070B07080349105A1051A
:1005F000B10561F447FD0AC0E114F10401051105DC
:1006000029F0405C5F4F6F4F7F4F40781A8EFE1786
:1006100011F081E08A8F4D8F5E8F6F8F78A383E01A
:10062000898FCE0149960E94CF05A096E2E10C94F5
:10063000621AA8E1B0E0EFE1F3E00C944E1A69838E
:100640007A838B839C832D833E834F835887B9E0C5
:10065000EB2EF12CEC0EFD1ECE010196B7010E948F
:10066000A4068E010F5E1F4FCE010596B8010E94B1
:10067000A4062985223008F47EC03989323010F46E
:10068000B8017CC08A859A8989278A87243011F02D
:10069000223031F4231709F06EC065E770E06EC0B8
:1006A000343039F41D861E861F86188A1C861B86E8
:1006B00004C0323021F484E08987B7015FC02B8504
:1006C0003C858B899C89281B390B3C872B87ED84C3
:1006D000FE840F851889AD88BE88CF88D88CEA142F
:1006E000FB040C051D0540F4EE0CFF1C001F111F40
:1006F000215030403C872B8720E030E040E050E044
:1007000080E090E0A0E0B0E460E070E0EA14FB0478
:100710000C051D0540F0282B392B4A2B5B2BEA18C2
:10072000FB080C091D09B695A79597958795EE0CC2
:10073000FF1C001F111F6F5F7F4F6F31710531F775
:10074000DA01C9018F779070A070B0708034910584
:10075000A105B10561F427FD0AC0E114F10401050A
:10076000110529F0205C3F4F4F4F5F4F20782D87B8
:100770003E874F87588BBE01675F7F4FCB010E943A
:10078000CF056896EAE00C946A1AA8E1B0E0EBECB9
:10079000F3E00C94521A69837A838B839C832D83B4
:1007A0003E834F83588789E0E82EF12CEC0EFD1E26
:1007B000CE010196B7010E94A4068E010F5E1F4F65
:1007C000CE010596B8010E94A4068985823040F0CA
:1007D0008989823028F0C701B8010E941C0701C036
:1007E0008FEF6896E6E00C946E1AA8E1B0E0EBEFAC
:1007F000F3E00C94521A69837A838B839C832D8354
:100800003E834F83588789E0E82EF12CEC0EFD1EC5
:10081000CE010196B7010E94A4068E010F5E1F4F04
:10082000CE010596B8010E94A4068985823040F069
:100830008989823028F0C701B8010E941C0701C0D5
:100840008FEF6896E6E00C946E1AA8E1B0E0EBE258
:10085000F4E00C94521A69837A838B839C832D83F2
:100860003E834F83588789E0E82EF12CEC0EFD1E65
:10087000CE010196B7010E94A4068E010F5E1F4FA4
:10088000CE010596B8010E94A4068985823040F009
:100890008989823028F0C701B8010E941C0701C075
:1008A00081E06896E6E00C946E1AA8E0B0E0EBE513
:1008B000F4E00C944F1A9B01AC0183E08983DA01C8
:1008C000C9018827B7FD83959927AA27BB27B82E8A
:1008D000211531054105510519F482E089833AC09B
:1008E0008823A9F0203080E0380780E0480780E8BE
:1008F000580729F460E070E080E09FEC30C0EE24FF
:10090000FF248701E21AF30A040B150B02C07901D8
:100910008A018EE1C82ED12CDC82CB82ED82FE8250
:100920000F831887C801B7010E9480050197181628
:10093000190684F4082E04C0EE0CFF1C001F111FC2
:100940000A94D2F7ED82FE820F831887C81AD90A5B
:10095000DC82CB82BA82CE0101960E94CF05289616
:10096000E9E00C946B1AACE0B0E0E9EBF4E00C9435
:10097000561A69837A838B839C83CE010196BE01CC
:100980006B5F7F4F0E94A4068D81823061F18230BF
:1009900050F1843021F48E81882351F12EC02F81B3
:1009A000388537FD20C06E812F3131051CF066235C
:1009B000F9F023C08EE190E0821B930B29853A85E4
:1009C0004B855C8504C056954795379527958A9544
:1009D000D2F76623B1F050954095309521953F4F61
:1009E0004F4F5F4F0EC020E030E040E050E009C0C4
:1009F0002FEF3FEF4FEF5FE704C020E030E040E033
:100A000050E8B901CA012C96E2E00C94721AA8E0F1
:100A1000B0E0EDE0F5E00C944E1A7B018C0161151D
:100A200071058105910519F482E0898360C083E036
:100A300089838EE1C82ED12CDC82CB82ED82FE82AE
:100A40000F831887C801B7010E948005FC01319708
:100A5000F7FF3BC0222733272E1B3F0B57016801AE
:100A6000022E04C0D694C794B794A7940A94D2F7E0
:100A700040E050E060E070E081E090E0A0E0B0E0B5
:100A800004C0880F991FAA1FBB1F2A95D2F7019790
:100A9000A109B1098E219F21A023B1230097A105AF
:100AA000B10521F041E050E060E070E04A295B29A7
:100AB0006C297D294D835E836F8378878EE190E07A
:100AC0008E1B9F0B9C838B8312C0309781F00E2E60
:100AD00004C0EE0CFF1C001F111F0A94D2F7ED8218
:100AE000FE820F831887CE1ADF0ADC82CB821A823D
:100AF000CE0101960E94CF052896EAE00C946A1A6E
:100B0000EF92FF920F931F937B018C0180E0E81618
:100B100080E0F80681E0080780E0180788F48FEF8E
:100B2000E816F1040105110531F028F088E090E0A5
:100B3000A0E0B0E017C080E090E0A0E0B0E012C01C
:100B400080E0E81680E0F80680E0080781E01807FA
:100B500028F088E190E0A0E0B0E004C080E190E0FF
:100B6000A0E0B0E020E230E040E050E0281B390B8C
:100B70004A0B5B0B04C016950795F794E7948A958A
:100B8000D2F7F701E358FF4F8081281B3109410953
:100B90005109C9011F910F91FF90EF900895DF92C5
:100BA000EF92FF920F931F93FC01E480F580068182
:100BB0001781D1808081823048F480E090E0A0E10C
:100BC000B0E0E82AF92A0A2B1B2BA5C0843009F4CF
:100BD0009FC0823021F4EE24FF24870105C0E11478
:100BE000F1040105110519F4E0E0F0E096C062811E
:100BF00073819FEF623879070CF05BC022E83FEF0A
:100C0000261B370B2A3131052CF020E030E040E084
:100C100050E02AC0B801A701022E04C0769567955E
:100C2000579547950A94D2F781E090E0A0E0B0E0B4
:100C300004C0880F991FAA1FBB1F2A95D2F70197DE
:100C4000A109B1098E219F21A023B1230097A105FD
:100C5000B10521F081E090E0A0E0B0E09A01AB01A5
:100C6000282B392B4A2B5B2BDA01C9018F77907027
:100C7000A070B07080349105A105B10539F427FF4B
:100C800009C0205C3F4F4F4F5F4F04C0215C3F4F76
:100C90004F4F5F4FE0E0F0E02030A0E03A07A0E0E7
:100CA0004A07A0E45A0710F0E1E0F0E079018A0178
:100CB00027C06038710564F5FB01E158FF4FD8018A
:100CC000C7018F779070A070B07080349105A10536
:100CD000B10539F4E7FE0DC080E490E0A0E0B0E09B
:100CE00004C08FE390E0A0E0B0E0E80EF91E0A1F18
:100CF0001B1F17FF05C016950795F794E7943196CB
:100D000087E016950795F794E7948A95D1F705C083
:100D1000EE24FF248701EFEFF0E06E2F6795662742
:100D20006795902F9F77D794DD24D7948E2F869543
:100D3000492F462B582F5D29B701CA011F910F91EA
:100D4000FF90EF90DF900895FC01DB01408151811D
:100D50002281622F6F7770E0221F2227221F93814A
:100D6000892F880F822B282F30E0991F9927991FF0
:100D700011969C93119721153105A9F5411551053F
:100D80006105710511F482E037C082E89FEF139688
:100D90009C938E9312979A01AB0167E0220F331F49
:100DA000441F551F6A95D1F783E08C930DC0220F25
:100DB000331F441F551F12968D919C9113970197D5
:100DC00013969C938E931297203080E0380780E032
:100DD000480780E4580758F314962D933D934D939C
:100DE0005C93179708952F3F310579F4411551050C
:100DF0006105710519F484E08C93089564FF03C0C4
:100E000081E08C9312C01C9210C02F573040139673
:100E10003C932E93129783E08C9387E0440F551FE9
:100E2000661F771F8A95D1F7706414964D935D9372
:100E30006D937C93179708951F93DC01FB019C91A0
:100E4000923008F447C08081823008F443C0943067
:100E500051F411961C91843099F58181682F70E0CE
:100E6000611B71093FC0843021F0923031F482302F
:100E7000B9F18181882389F12DC011961C911197B8
:100E80008230F1F081811817D9F412962D913C919E
:100E90001397828193818217930794F0281739075B
:100EA000BCF014968D919D910D90BC91A02D248144
:100EB000358146815781281739074A075B0718F49F
:100EC000112341F00AC082179307A407B50740F425
:100ED000112319F061E070E005C06FEF7FEF02C0F1
:100EE00060E070E0CB011F910895DF93CF9300D0B5
:100EF000CDB7DEB79A838983A3E5B0E0E3E5F0E000
:100F00008081877B8C93A3E5B0E0E3E5F0E09081FE
:100F1000E981FA818181892B8C93A3E5B0E0E3E537
:100F2000F0E080818F7C8C93A3E5B0E0E3E5F0E016
:100F30009081E981FA818281892B8C930F900F90A7
:100F4000CF91DF910895DF93CF9300D0CDB7DEB777
:100F50009A838983A3E5B0E0E3E5F0E08081887FB0
:100F60008C93A3E5B0E0E3E5F0E09081E981FA81BC
:100F70008081892B8C930F900F90CF91DF910895F2
:100F8000DF93CF93CDB7DEB7A3E5B0E0E3E5F0E0C4
:100F90008081887F8C93E2E5F0E01082CF91DF9131
:100FA0000895DF93CF93CDB7DEB76B970FB6F89464
:100FB000DEBF0FBECDBF9C8B8B8B7E8B6D8BCE012E
:100FC0000996988F8F8BEDE7F1E0FA8FE98FFAE0C1
:100FD000FB8FE98DFA8D0080898D9A8D01969A8F0D
:100FE000898FEF89F88D00828F89988D0196988F6F
:100FF0008F8B9B8D91509B8FEB8DEE2351F78091C2
:10100000FA01882F90E001979C01220F331FCE0137
:101010000196820F931FFC01389680819181CC014B
:10102000A0E0B0E0BC01CD010E940705DC01CB01CE
:10103000BC01CD0120E034E244E75BE40E941903E7
:10104000DC01CB018D839E83AF83B8878B899C891C
:1010500028EE33E0B9010E94F519CB01CC01A0E0E4
:10106000B0E0BC01CD010E940705DC01CB01BC0151
:10107000CD012D813E814F8158850E941903DC01ED
:10108000CB01BC01CD010E944900DC01CB01898369
:101090009A83AB83BC838091FB01882301F589810E
:1010A0009A81AB81BC81892F9A2FAB2FBB2780936C
:1010B000060290930702A0930802B0930902898167
:1010C0009A81AB81BC819070A070B07080930A024D
:1010D00090930B02A0930C02B0930D0234C0809148
:1010E000FB01883081F58091FD01282F30E040E040
:1010F00050E089819A81AB81BC81BC01CD010E9405
:10110000091ADA01C9018093060290930702A0939D
:101110000802B09309028091FD01282F30E040E0E1
:1011200050E089819A81AB81BC81BC01CD010E94D4
:10113000091ADC01CB0180930A0290930B02A09361
:101140000C02B0930D026B960FB6F894DEBF0FBE83
:10115000CDBFCF91DF910895DF93CF93CDB7DEB7A9
:10116000A9E5B0E0E9E5F0E080818C7F8C93809187
:10117000FB01882341F4A9E5B0E0E9E5F0E08081D6
:1011800081608C930BC08091FB01883039F4A9E514
:10119000B0E0E9E5F0E0808182608C93CF91DF914F
:1011A0000895DF93CF93CDB7DEB7A9E5B0E0E9E5C9
:1011B000F0E080818E7F8C93CF91DF910895DF9353
:1011C000CF9300D0CDB7DEB79A83898389819A8186
:1011D000009731F089819A819093010280930002F7
:1011E0000F900F90CF91DF910895DF93CF9300D0B0
:1011F000CDB7DEB79A83898389819A81009731F0D0
:1012000089819A819093FF018093FE010F900F9046
:10121000CF91DF910895DF93CF9300D000D00F924C
:10122000CDB7DEB769837A838B839C834D83ECE5EE
:10123000F0E084E68083A3E5B0E0E3E5F0E08081C0
:10124000887F8C93A3E5B0E0E3E5F0E080818260E5
:101250008C930F900F900F900F900F90CF91DF9184
:1012600008950F931F93DF93CF9300D0CDB7DEB7D0
:1012700089836A830CE510E08A81882F90E0AA2791
:1012800097FDA095BA2FBC01CD010E945504DC0149
:10129000CB01BC01CD0120E030E040E853E40E94E6
:1012A0001F02DC01CB01BC01CD0120E030E048ECA5
:1012B00052E40E941903DC01CB01BC01CD010E9464
:1012C0004900DC01CB01F8018083A3E5B0E0E3E550
:1012D000F0E08081887F8C93A3E5B0E0E3E5F0E067
:1012E00090818981892B8C930F900F90CF91DF9102
:1012F0001F910F9108951F920F920FB60F92112414
:101300002F933F934F935F936F937F938F939F930D
:10131000AF93BF93EF93FF93DF93CF93CDB7DEB738
:101320008091020290910302A0910402B091050203
:101330000196A11DB11D8093020290930302A09318
:101340000402B09305028091060290910702A091D9
:101350000802B09109029C01AD012F5F3F4F4F4F32
:101360005F4F8091020290910302A0910402B0911C
:101370000502281739074A075B0769F4E091000264
:10138000F09101020995109202021092030210924C
:10139000040210920502CF91DF91FF91EF91BF916E
:1013A000AF919F918F917F916F915F914F913F91FD
:1013B0002F910F900FBE0F901F9018951F920F92B4
:1013C0000FB60F9211242F933F934F935F936F9318
:1013D0007F938F939F93AF93BF93EF93FF93DF938D
:1013E000CF93CDB7DEB78091020290910302A09116
:1013F0000402B09105020196A11DB11D8093020265
:1014000090930302A0930402B09305028091060218
:1014100090910702A0910802B09109029C01AD01D0
:101420002F5F3F4F4F4F5F4F809102029091030219
:10143000A0910402B0910502281739074A075B07FB
:1014400069F4E091FE01F091FF010995109202020A
:10145000109203021092040210920502CF91DF91C4
:10146000FF91EF91BF91AF919F918F917F916F917C
:101470005F914F913F912F910F900FBE0F901F9052
:101480001895DF93CF93CDB7DEB72B970FB6F894AF
:10149000DEBF0FBECDBF9D838C838C819D81009765
:1014A00009F440C21B823AC28B81882F90E09C01D4
:1014B000220F331F220F331F8C819D81FC01E20F0D
:1014C000F31F80819AE0692F0E94E919892F8A838E
:1014D0008B81882F90E09C01220F331F220F331F36
:1014E0008C819D81FC01E20FF31F80819AE0692FBE
:1014F0000E94E91989838B81882F90E09C01220F3B
:10150000331F220F331F8C819D81FC01E20FF31FDB
:101510008281882389F08B81882F90E09C01220FA3
:10152000331F220F331F8C819D81FC01E20FF31FBB
:101530008281813009F0EFC18981282F30E03B871B
:101540002A876A857B8562307105D1F18A859B8502
:101550008330910534F42A853B852130310571F0C3
:1015600094C06A857B856330710509F44BC08A8518
:101570009B858430910509F467C087C0AAE3B0E079
:10158000EAE3F0E040818B81882F90E09C01220FFC
:10159000331F220F331F8C819D81FC01E20FF31F4B
:1015A0008281282F30E08A81882F90E0B90102C023
:1015B000660F771F8A95E2F7CB01842B8C9365C069
:1015C000A7E3B0E0E7E3F0E040818B81882F90E073
:1015D0009C01220F331F220F331F8C819D81FC0140
:1015E000E20FF31F8281282F30E08A81882F90E05C
:1015F000B90102C0660F771F8A95E2F7CB01842BF1
:101600008C9343C0A4E3B0E0E4E3F0E040818B813D
:10161000882F90E09C01220F331F220F331F8C81F3
:101620009D81FC01E20FF31F8281282F30E08A8127
:10163000882F90E0B90102C0660F771F8A95E2F704
:10164000CB01842B8C9321C0A1E3B0E0E1E3F0E077
:1016500040818B81882F90E09C01220F331F220F45
:10166000331F8C819D81FC01E20FF31F8281282FA3
:1016700030E08A81882F90E0B90102C0660F771FA1
:101680008A95E2F7CB01842B8C938B81882F90E095
:101690009C01220F331F220F331F8C819D81FC017F
:1016A000E20FF31F8181882389F08B81882F90E0DE
:1016B0009C01220F331F220F331F8C819D81FC015F
:1016C000E20FF31F8181813009F025C18981282F24
:1016D00030E0398728876885798562307105D1F1D6
:1016E000888599858330910534F4288539852130A2
:1016F000310571F094C0688579856330710509F40E
:101700004BC0888599858430910509F467C087C0EE
:10171000ABE3B0E0EBE3F0E040818B81882F90E019
:101720009C01220F331F220F331F8C819D81FC01EE
:10173000E20FF31F8181282F30E08A81882F90E00B
:10174000B90102C0660F771F8A95E2F7CB01842B9F
:101750008C9365C0A8E3B0E0E8E3F0E040818B81C2
:10176000882F90E09C01220F331F220F331F8C81A2
:101770009D81FC01E20FF31F8181282F30E08A81D7
:10178000882F90E0B90102C0660F771F8A95E2F7B3
:10179000CB01842B8C9343C0A5E3B0E0E5E3F0E0FC
:1017A00040818B81882F90E09C01220F331F220FF4
:1017B000331F8C819D81FC01E20FF31F8181282F53
:1017C00030E08A81882F90E0B90102C0660F771F50
:1017D0008A95E2F7CB01842B8C9321C0A2E3B0E081
:1017E000E2E3F0E040818B81882F90E09C01220FA2
:1017F000331F220F331F8C819D81FC01E20FF31FE9
:101800008181282F30E08A81882F90E0B90102C0C1
:10181000660F771F8A95E2F7CB01842B8C938B811F
:10182000882F90E09C01220F331F220F331F8C81E1
:101830009D81FC01E20FF31F8381882309F06BC0B7
:101840008981282F30E03F832E836E817F81623033
:10185000710549F18E819F818330910534F42E8189
:101860003F812130310561F056C06E817F81633048
:10187000710561F18E819F8184309105D1F14BC05A
:10188000ABE3B0E0EBE3F0E040818A81282F30E069
:1018900081E090E0022E02C0880F991F0A94E2F7BF
:1018A000842B8C9338C0A8E3B0E0E8E3F0E04081FB
:1018B0008A81282F30E081E090E0022E02C0880F5C
:1018C000991F0A94E2F7842B8C9325C0A5E3B0E01E
:1018D000E5E3F0E040818A81282F30E081E090E06C
:1018E000022E02C0880F991F0A94E2F7842B8C9372
:1018F00012C0A2E3B0E0E2E3F0E040818A81282F49
:1019000030E081E090E0022E02C0880F991F0A9417
:10191000E2F7842B8C938B818F5F8B838B818C314F
:1019200008F4C2CD2B960FB6F894DEBF0FBECDBF24
:10193000CF91DF910895DF93CF93CDB7DEB7AFE5B9
:10194000B0E0EFE5F0E0808180688C93CF91DF918B
:101950000895DF93CF93CDB7DEB7AFE5B0E0EFE505
:10196000F0E080818F778C93CF91DF910895DF93A2
:10197000CF9300D000D000D0CDB7DEB78C838C8160
:101980009AE0692F0E94E919892F8B838C819AE054
:10199000692F0E94E9198A838A81282F30E03E83CB
:1019A0002D834D815E814230510541F18D819E81B3
:1019B0008330910534F42D813E812130310561F071
:1019C00052C04D815E814330510551F18D819E8120
:1019D00084309105B9F147C0E9E3F0E08081282F18
:1019E00030E08B81882F90E0A90102C05595479582
:1019F0008A95E2F7CA018170898335C0E6E3F0E099
:101A00008081282F30E08B81882F90E0A90102C0CF
:101A1000559547958A95E2F7CA018170898323C05D
:101A2000E3E3F0E08081282F30E08B81882F90E085
:101A3000A90102C0559547958A95E2F7CA018170C0
:101A4000898311C0E0E3F0E08081282F30E08B81B2
:101A5000882F90E0A90102C0559547958A95E2F735
:101A6000CA0181708983898126960FB6F894DEBFFA
:101A70000FBECDBFCF91DF910895DF93CF93CDB748
:101A8000DEB728970FB6F894DEBF0FBECDBF8B83AD
:101A90006C838B819AE0692F0E94E919892F8A83D0
:101AA0008B819AE0692F0E94E91989838C818130AA
:101AB00009F070C08981282F30E038872F838F810B
:101AC00098858230910551F12F8138852330310579
:101AD00034F48F8198858130910561F0D3C02F81D6
:101AE00038852330310571F18F81988584309105D7
:101AF000E9F1C8C0ABE3B0E0EBE3F0E08081482F50
:101B00008A81282F30E081E090E0022E02C0880F09
:101B1000991F0A94E2F7842B8C93B4C0A8E3B0E039
:101B2000E8E3F0E08081482F8A81282F30E081E0CF
:101B300090E0022E02C0880F991F0A94E2F7842BCE
:101B40008C93A0C0A5E3B0E0E5E3F0E08081482FEE
:101B50008A81282F30E081E090E0022E02C0880FB9
:101B6000991F0A94E2F7842B8C938CC0A2E3B0E017
:101B7000E2E3F0E08081482F8A81282F30E081E085
:101B800090E0022E02C0880F991F0A94E2F7842B7E
:101B90008C9378C08C81882309F074C08981282FA8
:101BA00030E03E832D838D819E818230910561F1ED
:101BB0002D813E812330310534F48D819E81813029
:101BC000910569F05FC02D813E812330310589F197
:101BD0008D819E818430910509F440C053C0ABE3F0
:101BE000B0E0EBE3F0E08081482F8A81282F30E0DD
:101BF00081E090E0022E02C0880F991F0A94E2F75C
:101C0000809584238C933EC0A8E3B0E0E8E3F0E045
:101C10008081482F8A81282F30E081E090E0022ED9
:101C200002C0880F991F0A94E2F7809584238C9351
:101C300029C0A5E3B0E0E5E3F0E08081482F8A8188
:101C4000282F30E081E090E0022E02C0880F991F1B
:101C50000A94E2F7809584238C9314C0A2E3B0E049
:101C6000E2E3F0E08081482F8A81282F30E081E094
:101C700090E0022E02C0880F991F0A94E2F7809527
:101C800084238C9328960FB6F894DEBF0FBECDBF89
:101C9000CF91DF910895DF93CF9300D000D0CDB7DF
:101CA000DEB78A838A81282F30E03C832B838B81A7
:101CB0009C8182309105D9F02B813C812330310504
:101CC00034F48B819C818130910561F01EC02B81A1
:101CD0003C812330310581F08B819C8184309105DA
:101CE00081F013C0EBE3F0E0808189830EC0E8E36C
:101CF000F0E08081898309C0E5E3F0E08081898399
:101D000004C0E2E3F0E08081898389810F900F9025
:101D10000F900F90CF91DF910895DF93CF9300D074
:101D200000D0CDB7DEB789836A838981282F30E060
:101D30003C832B838B819C8182309105D9F02B8150
:101D40003C812330310534F48B819C8181309105B5
:101D500061F01EC02B813C812330310581F08B81E5
:101D60009C818430910581F013C0EBE3F0E08A811F
:101D700080830EC0E8E3F0E08A81808309C0E5E358
:101D8000F0E08A81808304C0E2E3F0E08A8180830E
:101D90000F900F900F900F90CF91DF910895DF93E8
:101DA000CF9300D000D00F92CDB7DEB78B838B815D
:101DB0009AE0692F0E94E919892F8A838B819AE022
:101DC000692F0E94E91989838981282F30E03D839A
:101DD0002C838C819D818230910551F12C813D8134
:101DE0002330310534F48C819D818130910561F07F
:101DF0005AC02C813D812330310571F18C819D8148
:101E000084309105E9F14FC0ABE3B0E0EBE3F0E0E3
:101E10008081482F8A81282F30E081E090E0022ED7
:101E200002C0880F991F0A94E2F784278C933BC065
:101E3000A8E3B0E0E8E3F0E08081482F8A81282F12
:101E400030E081E090E0022E02C0880F991F0A94D2
:101E5000E2F784278C9327C0A5E3B0E0E5E3F0E048
:101E60008081482F8A81282F30E081E090E0022E87
:101E700002C0880F991F0A94E2F784278C9313C03D
:101E8000A2E3B0E0E2E3F0E08081482F8A81282FCE
:101E900030E081E090E0022E02C0880F991F0A9482
:101EA000E2F784278C930F900F900F900F900F9074
:101EB000CF91DF910895DF93CF9300D0CDB7DEB7F8
:101EC0009A838983A7E2B0E0E7E2F0E080818F7334
:101ED0008C93A7E2B0E0E7E2F0E09081E981FA813B
:101EE0008181892B8C93A7E2B0E0E7E2F0E080816A
:101EF00080628C93A0E5B0E0E0E5F0E080818F7136
:101F00008C93A0E5B0E0E0E5F0E080818C93A7E25F
:101F1000B0E0E7E2F0E080818F7D8C93A7E2B0E053
:101F2000E7E2F0E08081482FE981FA818281282F61
:101F300030E081E090E0022E02C0880F991F0A94E1
:101F4000E2F7842B8C93A6E2B0E0E6E2F0E0808139
:101F5000887F8C93A6E2B0E0E6E2F0E09081E98130
:101F6000FA818081892B8C93A6E2B0E0E6E2F0E072
:101F7000808180618C93A6E2B0E0E6E2F0E08081AF
:101F800080688C930F900F90CF91DF910895DF932D
:101F9000CF93CDB7DEB727970FB6F894DEBF0FBE4D
:101FA000CDBF8D831C821B821A821982A7E2B0E00A
:101FB000E7E2F0E08081807E8C93A7E2B0E0E7E288
:101FC000F0E090818D81892B8C93A6E2B0E0E6E26F
:101FD000F0E0808180648C9305C08B819C810196A8
:101FE0009C838B83E6E2F0E0808182958F70882F5E
:101FF00090E081709070009731F48B819C812EE489
:102000008132920750F31C821B82E6E2F0E080816D
:1020100082958F70882F90E081709070882381F076
:10202000A6E2B0E0E6E2F0E080818F7E8C93E4E20D
:10203000F0E0808191819F838E838E819F8100C09B
:1020400027960FB6F894DEBF0FBECDBFCF91DF91BC
:102050000895DF93CF93CDB7DEB7A6E2B0E0E6E216
:10206000F0E0808188608C93CF91DF910895DF93B9
:10207000CF9300D000D00F92CDB7DEB789837B839A
:102080006A838A819B81009731F08A819B8190933A
:102090000F0280930E02A7E2B0E0E7E2F0E0808159
:1020A000807E8C93A7E2B0E0E7E2F0E09081898146
:1020B000892B8C93A6E2B0E0E6E2F0E080818064B8
:1020C0008C930F900F900F900F900F90CF91DF9106
:1020D00008951F920F920FB60F9211242F933F93E2
:1020E0004F935F936F937F938F939F93AF93BF9320
:1020F000EF93FF93DF93CF93CDB7DEB7E0910E025E
:10210000F0910F020995CF91DF91FF91EF91BF916F
:10211000AF919F918F917F916F915F914F913F917F
:102120002F910F900FBE0F901F901895DF93CF93B4
:10213000CDB7DEB727970FB6F894DEBF0FBECDBF81
:102140008F8380E090E4ACE9B0E489839A83AB8329
:10215000BC83E4E2F0E080819181CC01A0E0B0E0BA
:10216000BC01CD010E940705DC01CB01BC01CD0102
:1021700029813A814B815C810E941F02DC01CB01E5
:10218000BC01CD010E944900DC01CB012AE030E016
:10219000B9010E94F519CB019E838D838D819E81AB
:1021A00027960FB6F894DEBF0FBECDBFCF91DF915B
:1021B00008950F931F93DF93CF93CDB7DEB7C1562A
:1021C000D0400FB6F894DEBF0FBECDBFFE01EF5971
:1021D000FF4F80838CE060E00E943D0DFE01EF59CF
:1021E000FF4F808182958F70982F917084E1692FC5
:1021F0000E943D0DFE01EF59FF4F8081829586952B
:102200008770982F917085E1692F0E943D0DFE0126
:10221000EF59FF4F80818295869586958370982F20
:10222000917086E1692F0E943D0DFE01EF59FF4F2D
:102230008081982F991F9927991F88E1692F0E9403
:102240003D0D8CE061E00E943D0DFE01E35AFF4F21
:1022500080E090E0A0E8BFE380839183A283B38312
:102260008E01075A1F4FFE01E35AFF4F60817181B3
:10227000828193812BEA3AEA4AEA50E40E941F02E3
:10228000DC01CB01F80180839183A283B383FE013B
:10229000E75AFF4F608171818281938120E030E0B5
:1022A00040E85FE30E942504882334F4FE01E85AE5
:1022B000FF4F81E08083E0C0FE01E75AFF4F60815D
:1022C00071818281938120E030E04FE753E40E94E6
:1022D000C50318160CF0C0C0FE01E35AFF4F608121
:1022E00071818281938120E030E04AE754E40E94CA
:1022F0001903DC01CB01FE01EC5AFF4F808391836F
:10230000A283B3838E01005B1F4FFE01EC5AFF4F87
:10231000608171818281938120E030E04AE755E459
:102320000E941F02DC01CB01F80180839183A2830C
:10233000B383FE01E05BFF4F6081718182819381F5
:1023400020E030E040E85FE30E942504882344F465
:10235000FE01E25BFF4F81E090E09183808364C0E7
:10236000FE01E05BFF4F608171818281938120E0FB
:102370003FEF4FE757E40E94C50318160CF043C027
:10238000FE01EC5AFF4F608171818281938120E0D0
:1023900030E040E251E40E941F02DC01CB018E01DB
:1023A000025B1F4FBC01CD010E944900DC01CB0143
:1023B000F801918380831FC0FE01E45BFF4F80E939
:1023C00091E091838083FE01E45BFF4F80819181E6
:1023D0000197F1F7FE01E45BFF4F91838083DE01FB
:1023E000A25BBF4FFE01E25BFF4F808191810197AD
:1023F00011969C938E93FE01E25BFF4F8081918149
:102400000097D1F64BC08E01025B1F4FFE01E05BCF
:10241000FF4F60817181828193810E944900DC01BC
:10242000CB01F80191838083DE01A65BBF4FFE01E3
:10243000E25BFF4F8081918111969C938E93FE0108
:10244000E65BFF4F808191810197F1F7FE01E65B2A
:10245000FF4F9183808322C08E01085A1F4FFE01D7
:10246000E75AFF4F60817181828193810E94490008
:10247000DC01CB01F8018083DE01A75BBF4FFE01C9
:10248000E85AFF4F80818C93FE01E75BFF4F80810C
:102490008A95F1F7FE01E75BFF4F80838CE060E0F7
:1024A0000E943D0DFE01EB5BFF4F80E090E0A8EC49
:1024B000B2E480839183A283B3838E010F5B1F4FAD
:1024C000FE01EB5BFF4F60817181828193812BEA7A
:1024D0003AEA4AEA50E40E941F02DC01CB01F8010B
:1024E00080839183A283B383FE01EF5BFF4F608102
:1024F00071818281938120E030E040E85FE30E94B7
:102500002504882334F481E0FE01E05CFF4F8083E2
:102510009DC0FE01EF5BFF4F6081718182819381DD
:1025200020E030E04FE753E40E94C50318160CF09A
:102530007EC0FE01EB5BFF4F6081718182819381E0
:1025400020E030E04AE754E40E941903DC01CB01AB
:102550008CAF9DAFAEAFBFAF6CAD7DAD8EAD9FAD5F
:1025600020E030E04AE755E40E941F02DC01CB0185
:1025700088AF99AFAAAFBBAF68AD79AD8AAD9BAD5F
:1025800020E030E040E85FE30E94250488232CF43B
:1025900081E090E09FAB8EAB3FC068AD79AD8AAD76
:1025A0009BAD20E03FEF4FE757E40E94C5031816AC
:1025B0004CF56CAD7DAD8EAD9FAD20E030E040E2DE
:1025C00051E40E941F02DC01CB01BC01CD010E943D
:1025D0004900DC01CB019FAB8EAB0FC080E991E0DD
:1025E0009DAB8CAB8CA99DA90197F1F79DAB8CABF2
:1025F0008EA99FA901979FAB8EAB8EA99FA900972B
:1026000069F72DC068AD79AD8AAD9BAD0E944900D8
:10261000DC01CB019FAB8EAB8EA99FA99BAB8AAB94
:102620008AA99BA90197F1F79BAB8AAB18C0FE0161
:10263000EF5BFF4F60817181828193810E9449002D
:10264000DC01CB01FE01E05CFF4F8083FE01E05C1A
:10265000FF4F808189AB89A98A95F1F789AB8CE01E
:1026600060E00E943D0DFE01EF59FF4F8081982FE1
:10267000917084E1692F0E943D0DFE01EF59FF4FDB
:1026800080818695982F917085E1692F0E943D0D7C
:10269000FE01EF59FF4F808186958695982F9170A6
:1026A00086E1692F0E943D0DFE01EF59FF4F8081A9
:1026B000869586958695982F917088E1692F0E945E
:1026C0003D0D8CE061E00E943D0D80E090E0A0E8CF
:1026D000BFE38DA79EA7AFA7B8AB6DA57EA58FA5BD
:1026E00098A92BEA3AEA4AEA50E40E941F02DC0168
:1026F000CB0189A79AA7ABA7BCA769A57AA58BA58B
:102700009CA520E030E040E85FE30E942504882398
:102710001CF481E088A791C069A57AA58BA59CA52A
:1027200020E030E04FE753E40E94C50318160CF098
:102730007BC06DA57EA58FA598A920E030E04AE773
:1027400054E40E941903DC01CB018CA39DA3AEA32A
:10275000BFA36CA17DA18EA19FA120E030E04AE73C
:1027600055E40E941F02DC01CB0188A399A3AAA310
:10277000BBA368A179A18AA19BA120E030E040E839
:102780005FE30E94250488232CF481E090E09F8F72
:102790008E8F3FC068A179A18AA19BA120E03FEF65
:1027A0004FE757E40E94C50318164CF56CA17DA1B4
:1027B0008EA19FA120E030E040E251E40E941F0280
:1027C000DC01CB01BC01CD010E944900DC01CB0141
:1027D0009F8F8E8F0FC080E991E09D8F8C8F8C8DA5
:1027E0009D8D0197F1F79D8F8C8F8E8D9F8D019719
:1027F0009F8F8E8F8E8D9F8D009769F724C068A163
:1028000079A18AA19BA10E944900DC01CB019F8F85
:102810008E8F8E8D9F8D9B8F8A8F8A8D9B8D01973A
:10282000F1F79B8F8A8F0FC069A57AA58BA59CA510
:102830000E944900DC01CB0188A788A5898F898D7A
:102840008A95F1F7898F8CE060E00E943D0D80E071
:1028500090E0A8ECB2E48D8B9E8BAF8BB88F6D8926
:102860007E898F89988D2BEA3AEA4AEA50E40E94E1
:102870001F02DC01CB01898B9A8BAB8BBC8B6989E6
:102880007A898B899C8920E030E040E85FE30E94F0
:10289000250488231CF481E0888B91C069897A899A
:1028A0008B899C8920E030E04FE753E40E94C50308
:1028B00018160CF07BC06D897E898F89988D20E079
:1028C00030E04AE754E40E941903DC01CB018C8715
:1028D0009D87AE87BF876C857D858E859F8520E02F
:1028E00030E04AE755E40E941F02DC01CB018887F3
:1028F0009987AA87BB87688579858A859B8520E02B
:1029000030E040E85FE30E94250488232CF481E056
:1029100090E09F838E833FC0688579858A859B85FB
:1029200020E03FEF4FE757E40E94C50318164CF52F
:102930006C857D858E859F8520E030E040E251E406
:102940000E941F02DC01CB01BC01CD010E944900A5
:10295000DC01CB019F838E830FC080E991E09D83D2
:102960008C838C819D810197F1F79D838C838E816F
:102970009F8101979F838E838E819F81009769F746
:1029800024C0688579858A859B850E944900DC0181
:10299000CB019F838E838E819F819B838A838A81D3
:1029A0009B810197F1F79B838A830FC069897A899C
:1029B0008B899C890E944900DC01CB01888B888926
:1029C000898389818A95F1F78983CF59DF4F0FB6C3
:1029D000F894DEBF0FBECDBFCF91DF911F910F9155
:1029E0000895DF93CF93CDB7DEB7E0970FB6F89495
:1029F000DEBF0FBECDBF8CE060E00E943D0D80E0E9
:102A000090E0AAEFB4E48DA79EA7AFA7B8AB6DA5E1
:102A10007EA58FA598A92BEA3AEA4AEA50E40E94DB
:102A20001F02DC01CB0189A79AA7ABA7BCA769A5A8
:102A30007AA58BA59CA520E030E040E85FE30E94EA
:102A4000250488231CF481E088A791C069A57AA594
:102A50008BA59CA520E030E04FE753E40E94C5031E
:102A600018160CF07BC06DA57EA58FA598A920E057
:102A700030E04AE754E40E941903DC01CB018CA347
:102A80009DA3AEA3BFA36CA17DA18EA19FA120E0B9
:102A900030E04AE755E40E941F02DC01CB0188A325
:102AA00099A3AAA3BBA368A179A18AA19BA120E0B5
:102AB00030E040E85FE30E94250488232CF481E0A5
:102AC00090E09F8F8E8F3FC068A179A18AA19BA1C2
:102AD00020E03FEF4FE757E40E94C50318164CF57E
:102AE0006CA17DA18EA19FA120E030E040E251E4E5
:102AF0000E941F02DC01CB01BC01CD010E944900F4
:102B0000DC01CB019F8F8E8F0FC080E991E09D8FFC
:102B10008C8F8C8D9D8D0197F1F79D8F8C8F8E8D75
:102B20009F8D01979F8F8E8F8E8D9F8D009769F758
:102B300024C068A179A18AA19BA10E944900DC015F
:102B4000CB019F8F8E8F8E8D9F8D9B8F8A8F8A8DCD
:102B50009B8D0197F1F79B8F8A8F0FC069A57AA58E
:102B60008BA59CA50E944900DC01CB0188A788A504
:102B7000898F898D8A95F1F7898F83E30E94AA1640
:102B800082E30E94AA1688E20E94AA168EE00E94A2
:102B9000AA1681E00E94AA1680E090E0AAEFB4E4B1
:102BA0008D8B9E8BAF8BB88F6D897E898F89988D29
:102BB0002BEA3AEA4AEA50E40E941F02DC01CB0108
:102BC000898B9A8BAB8BBC8B69897A898B899C8921
:102BD00020E030E040E85FE30E94250488231CF4F5
:102BE00081E0888B91C069897A898B899C8920E0F2
:102BF00030E04FE753E40E94C50318160CF07BC089
:102C00006D897E898F89988D20E030E04AE754E411
:102C10000E941903DC01CB018C879D87AE87BF879B
:102C20006C857D858E859F8520E030E04AE755E400
:102C30000E941F02DC01CB0188879987AA87BB8786
:102C4000688579858A859B8520E030E040E85FE3F0
:102C50000E94250488232CF481E090E09F838E83DA
:102C60003FC0688579858A859B8520E03FEF4FE7E7
:102C700057E40E94C50318164CF56C857D858E853A
:102C80009F8520E030E040E251E40E941F02DC0119
:102C9000CB01BC01CD010E944900DC01CB019F8327
:102CA0008E830FC080E991E09D838C838C819D8110
:102CB0000197F1F79D838C838E819F8101979F837C
:102CC0008E838E819F81009769F724C068857985FE
:102CD0008A859B850E944900DC01CB019F838E83FE
:102CE0008E819F819B838A838A819B810197F1F7E3
:102CF0009B838A830FC069897A898B899C890E940A
:102D00004900DC01CB01888B8889898389818A9578
:102D1000F1F7898386E00E94AA168CE00E94AA1629
:102D2000E0960FB6F894DEBF0FBECDBFCF91DF9116
:102D30000895DF93CF930F92CDB7DEB789838DE0EF
:102D400061E00E943D0D89810E94D9100F90CF91C2
:102D5000DF910895DF93CF930F92CDB7DEB78983CC
:102D60008DE060E00E943D0D89810E94D9100F9096
:102D7000CF91DF910895DF93CF9300D0CDB7DEB729
:102D80009A8389830AC0E981FA8180810E94991619
:102D900089819A8101969A838983E981FA81808168
:102DA000882389F70F900F90CF91DF910895EF92CC
:102DB000FF920F931F93DF93CF93CDB7DEB7289782
:102DC0000FB6F894DEBF0FBECDBF6D837E838F83B9
:102DD000988781E090E0A0E0B0E089839A83AB839C
:102DE000BC838D819E81AF81B8850097A105B10517
:102DF000D1F580E30E9499166BC089819A81AB81DD
:102E0000BC812AE030E040E050E0BC01CD010E94EE
:102E1000CA197B018C018D819E81AF81B8852AE022
:102E200030E040E050E0BC01CD010E942B1ADC01F3
:102E3000CB018E0D9F1DA01FB11F89839A83AB8389
:102E4000BC838D819E81AF81B8852AE030E040E06F
:102E500050E0BC01CD010E942B1ADA01C9018D831B
:102E60009E83AF83B8878D819E81AF81B88500979F
:102E7000A105B10511F623C089819A81AB81BC817E
:102E80002AE030E040E050E0BC01CD010E94091A88
:102E9000DC01CB01805D0E94991689819A81AB810A
:102EA000BC812AE030E040E050E0BC01CD010E944E
:102EB000091ADA01C90189839A83AB83BC838981AA
:102EC0009A81AB81BC8181309105A105B105A1F644
:102ED00028960FB6F894DEBF0FBECDBFCF91DF911D
:102EE0001F910F91FF90EF900895DF93CF93CDB78F
:102EF000DEB76E970FB6F894DEBF0FBECDBF8D8FD5
:102F00006E8F80E8898F80EC8A8F84E98B8F84EDC7
:102F10008C8F8E8D882F90E09C0121503040CE0107
:102F20004996FC01E20FF31F90818D8D890F81502E
:102F30000E94AA1680E090E0A8ECB2E48D8B9E8BF4
:102F4000AF8BB88F6D897E898F89988D2BEA3AEA8D
:102F50004AEA50E40E941F02DC01CB01898B9A8B64
:102F6000AB8BBC8B69897A898B899C8920E030E0A6
:102F700040E85FE30E94250488231CF481E0888BED
:102F800091C069897A898B899C8920E030E04FE77C
:102F900053E40E94C50318160CF07BC06D897E892E
:102FA0008F89988D20E030E04AE754E40E941903AD
:102FB000DC01CB018C879D87AE87BF876C857D85C3
:102FC0008E859F8520E030E04AE755E40E941F028D
:102FD000DC01CB0188879987AA87BB8768857985BB
:102FE0008A859B8520E030E040E85FE30E9425046D
:102FF00088232CF481E090E09F838E833FC0688516
:1030000079858A859B8520E03FEF4FE757E40E9452
:10301000C50318164CF56C857D858E859F8520E04F
:1030200030E040E251E40E941F02DC01CB01BC0110
:10303000CD010E944900DC01CB019F838E830FC02C
:1030400080E991E09D838C838C819D810197F1F7CC
:103050009D838C838E819F8101979F838E838E8138
:103060009F81009769F724C0688579858A859B854B
:103070000E944900DC01CB019F838E838E819F815A
:103080009B838A838A819B810197F1F79B838A8343
:103090000FC069897A898B899C890E944900DC016B
:1030A000CB01888B8889898389818A95F1F7898307
:1030B0006E960FB6F894DEBF0FBECDBFCF91DF91F5
:1030C0000895DF93CF9300D000D000D0CDB7DEB706
:1030D00089836A838981282F30E03E832D838D8107
:1030E0009E81009731F02D813E812130310531F0F4
:1030F00009C089E161E00E943D0D04C089E160E002
:103100000E943D0D8A81282F30E03C832B838B81E8
:103110009C81009731F02B813C812130310531F0C9
:1031200009C08AE160E00E943D0D04C08AE161E0CF
:103130000E943D0D26960FB6F894DEBF0FBECDBFA0
:10314000CF91DF910895DF93CF9300D0CDB7DEB755
:1031500089836A8389816A810E9431090F900F9067
:10316000CF91DF910895DF93CF93CDB7DEB72E9740
:103170000FB6F894DEBF0FBECDBF8AE891E00E9483
:10318000410A8AEF91E00E94750787E891E00E946A
:103190005B0F80E061E00E9461180E94F1140E94C0
:1031A00029100E949B0C81E061E00E94751780E667
:1031B00090E00E94BB1680E090E0AAEFB3E48B871A
:1031C0009C87AD87BE876B857C858D859E8520E03D
:1031D00030E04AE755E40E941F02DC01CB018F83F7
:1031E0009887A987BA876F81788589859A8520E035
:1031F00030E040E85FE30E94250488232CF481E05E
:1032000090E09E838D833FC06F81788589859A8504
:1032100020E03FEF4FE757E40E94C50318164CF536
:103220006B857C858D859E8520E030E040E251E411
:103230000E941F02DC01CB01BC01CD010E944900AC
:10324000DC01CB019E838D830FC080E991E09C83DC
:103250008B838B819C810197F1F79C838B838D817C
:103260009E8101979E838D838D819E81009769F752
:1032700014C06F81788589859A850E944900DC0198
:10328000CB019E838D838D819E819A8389838981E1
:103290009A810197F1F79A8389832CEB39E181E0D8
:1032A000B9010E94371081E062E00E947517809199
:1032B000120290911302CC01A0E0B0E0BC01CD015C
:1032C0000E94D71681E063E00E9475178EE690E0B9
:1032D0000E94BB1680911202909113028A319105CF
:1032E00078F480E060E00E94611881E064E00E9470
:1032F000751760E070E080E090E00E94D716CDCFB7
:1033000080911202909113028A319105D0F0809140
:103310001202909113028432910598F480E061E0EA
:103320000E94611885E062E30E94A31881E064E0D6
:103330000E94751762E370E080E090E00E94D7166B
:10334000ACCF80911202909113028432910508F45F
:10335000A4CF80E061E00E94611885E060E50E94F2
:10336000A31881E064E00E94751760E570E080E0DA
:1033700090E00E94D71691CFDF93CF93CDB7DEB701
:1033800081E00E9496109093130280931202CF91D5
:10339000DF910895629FD001739FF001829FE00D3D
:1033A000F11D649FE00DF11D929FF00D839FF00DC4
:1033B000749FF00D659FF00D9927729FB00DE11D70
:1033C000F91F639FB00DE11DF91FBD01CF0111244D
:1033D0000895991B79E004C0991F961708F0961B71
:1033E000881F7A95C9F780950895AA1BBB1B51E1E8
:1033F00007C0AA1FBB1FA617B70710F0A61BB70B65
:10340000881F991F5A95A9F780959095BC01CD0109
:103410000895A1E21A2EAA1BBB1BFD010DC0AA1F15
:10342000BB1FEE1FFF1FA217B307E407F50720F02D
:10343000A21BB30BE40BF50B661F771F881F991FA8
:103440001A9469F760957095809590959B01AC01F1
:10345000BD01CF01089597FB092E05260ED057FD1B
:1034600004D0D7DF0AD0001C38F450954095309531
:1034700021953F4F4F4F5F4F0895F6F790958095F8
:10348000709561957F4F8F4F9F4F08952F923F9278
:103490004F925F926F927F928F929F92AF92BF9264
:1034A000CF92DF92EF92FF920F931F93CF93DF9310
:1034B000CDB7DEB7CA1BDB0B0FB6F894DEBF0FBE6D
:1034C000CDBF09942A88398848885F846E847D84BA
:1034D0008C849B84AA84B984C884DF80EE80FD80BC
:1034E0000C811B81AA81B981CE0FD11D0FB6F89432
:0E34F000DEBF0FBECDBFED010895F894FFCFF3
:1034FE0054656D70657261747572653A200044751D
:10350E0074793A2000000000000000000000010263
:10351E000203030303040404040404040405050560
:10352E00050505050505050505050505050606063A
:10353E00060606060606060606060606060606061D
:10354E00060606060606060606060606060707070A
:10355E0007070707070707070707070707070707ED
:10356E0007070707070707070707070707070707DD
:10357E0007070707070707070707070707070707CD
:10358E0007070707070707070707070707080808BA
:10359E00080808080808080808080808080808089D
:1035AE00080808080808080808080808080808088D
:1035BE00080808080808080808080808080808087D
:1035CE00080808080808080808080808080808086D
:1035DE00080808080808080808080808080808085D
:1035EE00080808080808080808080808080808084D
:1035FE00080808080808080808080808080808083D
:10360E000808080808080808080808080800000143
:10361E0000080040000004054000140001011500E0
:10362E00010116000101180001010D0001010C003D
:10363E000101170001011A0001011900010100002A
:10364E00000000000000000000000000000000006C
:10365E00000000000000000000000000000000005C
:10366E00000000000000000000000000000000004C
:10367E00000000000000000000000000000000003C
:0E368E0000000000000000000000054020FACF
:00000001FF
